:100000000C9403020C9434020C9434020C943402C9
:100010000C9434020C9434020C9434020C94340288
:100020000C9434020C9434020C9434020C94340278
:100030000C9434020C9434020C9434020C94340268
:100040000C9434020C9473160C9434020C94340205
:100050000C9434020C9434020C9434020C949F15CA
:100060000C9434020C9469150C943F150C943402D2
:100070000C9434020C9434020C9434020C94340228
:100080000C9445160C9434020C9434020C943402F3
:100090000C9434020C9434020C9434020C94340208
:1000A0000C9434020C9434020C9417160C94340201
:1000B0000C9434020C9434020C9434020C94E91520
:1000C0000C9434020C9434020C9434020C943402D8
:1000D0000C9434020C9434020C9434020C943402C8
:1000E0000C9434020C94F8030C94EE030C9460030B
:1000F0000C9440080C941F080C94BD070C94C7087E
:100100000C94CF030C94C0020C94C0120C945D09A3
:100110000C9456090C9406040C94E1030C94990C6D
:100120000C940B0C0C94F8020C9448090C940D0CD4
:100130000C9414040C94F60E0C94C5070C946202F3
:100140000C942D140C9410040C94090C0C9432098A
:100150000C9401140C94A1160C94AC120C94C707C7
:100160000C9427130C94E4030C94AC0E0C944407E9
:100170000C940F040C949E020C9485110C94BB07F4
:100180000C941B090C94D20C0C94B80E0C94C90757
:100190000C94BF070C94221B0C943A090C943A154A
:1001A0000C94B40B0C94DD030C94C1070C948E14C6
:1001B0000C948F020C9478070C9474080C940F0C18
:1001C0000C9402040C9436130C944F090C94030CF9
:1001D0000C9418110C94C3070C94EA030C94070CAC
:1001E0000C94F4030C94600C0C9464090C94110CA2
:1001F0000C94D9030C94EB0B0C9496070C94D50338
:100200000C94A60E0C94B2020C94050C0C940A04E7
:100210000C94FC030C9495080C94DD080C940D0EC2
:100220000C94750E0C9441094E414E494E49545957
:10023000494E46CDCCCC3D0AD7233C17B7D13877B1
:10024000CC2B329595E6241FB14F0A0000204100C7
:1002500000C84200401C4620BCBE4CCA1B0E5AAE11
:10026000C59D74476F20746F20706F736974696FD8
:100270006E207472756500486F6D696E67207472C8
:10028000756500476F20746F20706F736974696FB4
:100290006E207472756500486F6D696E67207472A8
:1002A000756500506F736974696F6E3A200045453B
:1002B00050524F20506F736974696F6E3A2000433B
:1002C0006865636B206D616368696E652074727523
:1002D0006500456E6420636F66666520776F726B9C
:1002E000730000002100240027002A002D003000A8
:1002F000330001010000040107010A01000022008F
:10030000250028002B002E003100340002010000DF
:10031000050108010B010000200023002600290030
:100320002C002F003200000100000301060109012A
:1003300005050505070508080808020202020A0A61
:10034000080804040404010101010101010103037F
:10035000030303030303040707070C0C0C0C0C0C2A
:100360000C0C0202020206060606060606060B0B27
:100370000B0B0B0B0B0B0102102020080810204068
:100380001020408002010201080402010102040859
:1003900010204080804020100804020180040201E7
:1003A0008040201008040201080402010102040830
:1003B00010204080010204081020408000000A0B39
:1003C00002090C0D0E0807030401000000000000E4
:1003D000000000000000000000000000000000001D
:1003E00000000000000000001211100000000000DA
:1003F00000000000000000000000000000000000FD
:100400000000A116221B11241FBECFEFD1E2DEBFD8
:10041000CDBF00E00CBF13E0A0E0B2E0E6E9F4E4F9
:1004200000E00BBF02C007900D92A231B107D9F7CF
:1004300026E0A2E1B3E001C01D92AD30B207E1F7C2
:1004400012E0C2E0D2E000E006C021970109802F4F
:10045000FE010E941220C130D10780E00807A9F7F1
:100460000E9406180C9439220C940000E4E5F4E094
:1004700030E020E0908198130DC085E0829FF0016C
:10048000839FF00D1124EC5AFB4F618172818381AF
:10049000948108952F5F3F4F35962530310551F7F0
:1004A00060E070E0CB010895E4E5F4E090819817F6
:1004B00039F0359694E0ED36F907C1F780E00895FC
:1004C00081E00895AF92BF92CF92DF92EF92FF92B8
:1004D0000F931F93CF93DF936C017B018B01040F6C
:1004E000151FEB015E01AE18BF08C017D10759F008
:1004F0006991D601ED91FC910190F081E02DC6014A
:100500001995892B79F7C501DF91CF911F910F9133
:10051000FF90EF90DF90CF90BF90AF900895FC01D7
:10052000538D448D252F30E0842F90E0821B930B58
:10053000541710F0CF96089501970895FC01918DFE
:10054000828D981761F0A28DAE0FBF2FB11D5D9601
:100550008C91928D9F5F9F73928F90E008958FEFA3
:100560009FEF0895FC01918D828D981731F0828D57
:10057000E80FF11D858D90E008958FEF9FEF0895AE
:10058000FC01918D228D892F90E0805C9F4F821B12
:1005900091098F739927089587EB93E00E94C00219
:1005A00021E0892B09F420E0822F0895FC01A48D1D
:1005B000A80FB92FB11DA35ABF4F2C91848D90E085
:1005C00001968F739927848FA689B7892C93A08968
:1005D000B1898C91837080648C93938D848D9813F2
:1005E00006C00288F389E02D80818F7D8083089585
:1005F000EF92FF920F931F93CF93DF93EC0181E073
:10060000888F9B8D8C8D98131AC0E889F989808119
:1006100085FF15C09FB7F894EE89FF896083E8894C
:10062000F98980818370806480839FBF81E090E03E
:10063000DF91CF911F910F91FF90EF900895F62ECB
:100640000B8D10E00F5F1F4F0F731127E02E8C8D65
:100650008E110CC00FB607FCFACFE889F9898081AA
:1006600085FFF5CFCE010E94D602F1CFEB8DEC0FC6
:10067000FD2FF11DE35AFF4FF0829FB7F8940B8FC7
:10068000EA89FB8980818062CFCF0F931F93CF933C
:10069000DF938C01D0E0C0E0F801EC0FFD1F649106
:1006A000662341F087EB93E00E94F802892B11F05A
:1006B0002196F2CFCE01DF91CF911F910F91089536
:1006C000CF93DF93EC01888D8823B9F0AA89BB8989
:1006D000E889F9898C9185FD03C0808186FD0DC074
:1006E0000FB607FCF7CF8C9185FFF2CF808185FF95
:1006F000EDCFCE010E94D602E9CFDF91CF910895D0
:1007000080E090E0892B29F00E94CC0281110E94A8
:10071000000080E090E0892B49F080E090E0892B98
:1007200029F00E94000081110E94000080E090E00A
:10073000892B49F080E090E0892B29F00E9400008D
:1007400081110E94000080E090E0892B49F080E058
:1007500090E0892B29F00E94000081110C94000088
:1007600008958150823108F05AC0E82FF0E08827C0
:10077000E354FC4F8F4F0C941220DD03E103CF03B1
:10078000D503D9030F04E403EA03EE03F403F803EB
:10079000FC03020406040F040A04100414048091EC
:1007A00080008F77809380000895809180008F7DF6
:1007B000F9CF80918000877FF5CF84B58F7784BD96
:1007C000089584B58F7DFBCF8091B0008F778093A3
:1007D000B00008958091B0008F7DF9CF8091900096
:1007E0008F77809390000895809190008F7DF9CF4E
:1007F00080919000877FF5CF8091A0008F778093C4
:10080000A00008958091A0008F7DF9CF8091A00075
:10081000877FF5CF809120018F7780932001089505
:10082000809120018F7DF9CF80912001877FF5CFC6
:10083000CF93DF93282F30E0F901E454FC4F8491EB
:10084000F901EA58FC4FD491F901E05DFC4FC491E5
:10085000CC23A1F081110E94B103EC2FF0E0EE0F48
:10086000FF1FEA5EFC4FA591B491EC91ED2381E06E
:1008700090E009F480E0DF91CF91089580E090E06E
:10088000FACF1F93CF93DF93282F30E0F901E45480
:10089000FC4F8491F901EA58FC4FD491F901E05DD5
:1008A000FC4FC491CC23A9F0162F81110E94B103F3
:1008B000EC2FF0E0EE0FFF1FE450FD4FA591B49137
:1008C0008FB7F894EC91111108C0D095DE23DC931A
:1008D0008FBFDF91CF911F910895DE2BF8CFCF937B
:1008E000DF9390E0FC01EA58FC4F2491805D9C4F1F
:1008F000FC0184918823D1F090E0880F991FFC01BE
:10090000EE51FD4FA591B491FC01E450FD4FC5910E
:10091000D491623071F49FB7F8943C91822F809506
:1009200083238C93E8812E2B28839FBFDF91CF9167
:1009300008958FB7F894EC912E2B2C938FBFF6CFA0
:100940003FB7F8948091B3039091B403A091B5039D
:10095000B091B60326B5A89B05C02F3F19F00196AC
:10096000A11DB11D3FBFBA2FA92F982F8827BC0109
:10097000CD01620F711D811D911D42E0660F771F31
:10098000881F991F4A95D1F708958F929F92AF9231
:10099000BF92CF92DF92EF92FF926B017C010E9497
:1009A000A0044B015C01C114D104E104F104B9F0CD
:1009B0000E94A004681979098A099B09683E73405E
:1009C0008105910580F321E0C21AD108E108F10800
:1009D00088EE880E83E0981EA11CB11CE4CFFF9026
:1009E000EF90DF90CF90BF90AF909F908F90089541
:1009F000DC01EC91E03390F511968C91119728E889
:100A000030E0281B310987FD3395220F331F220F59
:100A1000331F6217730784F012968C9128E532E039
:100A2000281B310987FD3395220F331F220F331FF7
:100A3000621773070CF49B0122503109220F331FF8
:100A40004FB7F8948E2F90E0FC01EE0FFF1FE80FD8
:100A5000F91FE25EFC4F328321834FBF0895CF928E
:100A6000DF92EF92FF92CF93DF93EC01603282E04E
:100A70007807CCF5653B710514F064EB70E0898173
:100A800028E830E0281B310987FD3395220F331FFA
:100A9000220F331F6901330FEE08FF088A8128E512
:100AA00032E0281B310987FD3395220F331F220FB7
:100AB000331F032E000C440B550B2C193D094E0916
:100AC0005F09DB0177FF02C0B0E0A0E00E94581E82
:100AD00024EB30E040E050E00E942E1EC20ED31EF8
:100AE000E41EF51EB601CE01DF91CF91FF90EF908D
:100AF000DF90CF900C94F8041F93CF93DF93EC0119
:100B0000162F8881803308F04EC061E0812F0E944B
:100B10006F048881282F30E0F901EE0FFF1FE20FEC
:100B2000F31FE25EFC4F1F736081607C612B60836A
:100B300019821A822CE0622F0E940620829FB00147
:100B4000112430E020E0AB01420F531FFA01EE0FF9
:100B5000FF1FE40FF51FE25EFC4F908196FD16C06B
:100B60002F5F3F4F2C30310571F7813009F510921E
:100B7000800082E0809381001092850010928400B2
:100B8000B19A80916F00826080936F00E8818E2F10
:100B900090E0FC01EE0FFF1FE80FF91FE25EFC4F33
:100BA0008081806480838881DF91CF911F91089537
:100BB000823061F410929000809391001092950021
:100BC0001092940088BB80937100E0CF833069F469
:100BD0001092A00082E08093A1001092A5001092D4
:100BE000A40089BB80937200D1CF8111CFCF109226
:100BF000200182E0809321011092250110922401AE
:100C00008ABB80937300C2CFFC0190911D03903387
:100C100098F481E0890F80931D039083892F90E0E1
:100C2000FC01EE0FFF1FE80FF91FE25EFC4F88EB9F
:100C30009BE09283818308958FEF80830895AF9224
:100C4000BF92CF92DF92EF92FF920F931F93CF93B9
:100C5000DF936B017A01EC01C75EDC4F28813CE039
:100C6000389F8001399F100D1124A0901D03B12CD5
:100C700027FF1FC0FB011182108288818F5F88834C
:100C800088819801280F311D87FD3A95F6012A15B4
:100C90003B051CF488818C30C4F1808191810496DD
:100CA00080349C4908F473C0F601808191810496D8
:100CB00070C088819801280F311D87FD3A952A154B
:100CC0003B05DCF68881A801480F511D87FD5A9528
:100CD000FA01EE0FFF1FE40FF51FE25EFC4F80816B
:100CE00086FFCBCF8881F801E80FF11D87FDFA95CB
:100CF000CF01EE0FFF1FE80FF91FE25EFC4F80816E
:100D000060E08F730E944104B8CF80819181288177
:100D1000A801420F511D27FD5A959A01FA01EE0FC5
:100D2000FF1FE20FF31FE25EFC4F21813281820F31
:100D3000931FF7019183808388819801280F311DCB
:100D400087FD3A95F901EE0FFF1FE20FF31FE25EF8
:100D5000FC4F808186FF22C08881080F111D87FD0E
:100D60001A95F801EE0FFF1FE00FF11FE25EFC4F36
:100D7000808161E08F73DF91CF911F910F91FF9080
:100D8000EF90DF90CF90BF90AF900C94410480E43F
:100D90009CE9F701918380838FEF8883DF91CF9166
:100DA0001F910F91FF90EF90DF90CF90BF90AF9089
:100DB00008954F925F926F927F92AF92BF92CF92BF
:100DC000DF92EF92FF920F931F93CF93DF93EC018B
:100DD0005A018B01488C598C6A8C7B8C730162019F
:100DE000F7FAF094F7F8F0949A01AB01C701B60155
:100DF0000E94A61F181664F09501A801C301B20154
:100E00000E94F11C7301620187FD02C06501780137
:100E100020E030E0A901C701B6010E94F11C811158
:100E200017C01CA21DA21EA21FA2CC8ADD8AEE8AB8
:100E3000FF8ADF91CF911F910F91FF90EF90DF908C
:100E4000CF90BF90AF907F906F905F904F9008953C
:100E5000A701960160E074E284E799E40E94FE1E17
:100E60009F770E94771F6CA37DA38EA39FA311E0A1
:100E700020E030E0A901C701B6010E94A61F1816A4
:100E80000CF010E01A83D1CFCF93DF93FC012381C4
:100E9000222359F1EC0161E084810E946F0461E03A
:100EA0008D810E946F048B81843011F08830B1F401
:100EB00061E08E810E946F0461E08F810E946F0467
:100EC0008FA58F3F91F061E00E946F046EA581E0D5
:100ED00068278FA5DF91CF910C944104833011F0E6
:100EE000863071F761E08E81E9CFDF91CF9108956F
:100EF000CF93DF93FC0123812223A9F0EC01019021
:100F0000F081E02D0480F581E02D60E019958FA53A
:100F10008F3F49F061E00E946F046EA58FA5DF91BD
:100F2000CF910C944104DF91CF910895DC01ED91B4
:100F3000FC911197248135814770552766277727C3
:100F40004150510961097109473051056105710529
:100F500070F4FA018827E055F84F8F4F0C94122057
:100F6000BB07BD07BF07C107C307C507C70761E0C8
:100F7000CD01F901199465E0FBCF64E0F9CF66E09B
:100F8000F7CF62E0F5CF6AE0F3CF68E0F1CF69E038
:100F9000EFCFCF93DF93EC01CB01BA0126E030E035
:100FA00040E050E00E942E1E6230710581059105DF
:100FB00089F16CF46115710581059105D1F06130FD
:100FC000710581059105F9F0DF91CF9108956430A5
:100FD00071058105910561F124F165307105810587
:100FE000910591F7E881F9810480F581E02D66E0B3
:100FF00006C0E881F9810480F581E02D64E0CE012E
:10100000DF91CF911994E881F9810480F581E02D79
:1010100065E0F5CFE881F9810480F581E02D61E09C
:10102000EECFE881F9810480F581E02D63E0E7CF20
:10103000E881F9810480F581E02D62E0E0CFDC01F8
:10104000ED91FC910480F581E02D437055276627D2
:101050007727423051056105710571F04330510524
:101060006105710559F0413051056105710511F0B7
:1010700065E0199466E0FDCF6AE0FBCF69E0F9CF47
:10108000CF93DF93EC01CB01BA0123E030E040E0E5
:1010900050E00E942E1E613071058105910599F086
:1010A0006230710581059105A9F0672B682B692BCA
:1010B000C1F4E881F9810480F581E02D64E0CE017E
:1010C000DF91CF911994E881F9810480F581E02DB9
:1010D00061E0F5CFE881F9810480F581E02D62E0DF
:1010E000EECFDF91CF910895DC01ED91FC9104806A
:1010F000F581E02D4370552766277727423051054B
:101100006105710571F0433051056105710559F0B4
:10111000413051056105710511F062E0199463E0F9
:10112000FDCF61E0FBCF60E0F9CFCF93DF93EC011F
:10113000E881F9810480F581E02D8A8160E08111E8
:1011400062E0CE011995E881F9810480F581E02DF6
:101150008A8161E0811163E0CE0119958CA59DA57E
:101160008230910538F0880F991F880F991F0597D5
:101170000197F1F7E881F9810480F581E02D8A81FA
:1011800060E0811162E0CE01DF91CF911994CF939D
:10119000DF93EC0120E030E0A9016C897D898E8924
:1011A0009F890E94A61F18162CF4E8A9F9A9DF91BF
:1011B000CF911994EAA9FBA9FACFCF92DF92EF92CF
:1011C000FF920F931F93CF93DF93DC011396CC9183
:1011D000C43039F0C83059F1C33019F0C63049F184
:1011E000C2E08C010C5F1F4FF12CE12CC62ED12CDC
:1011F000D1E0F8016481C6010E2C02C09595879557
:101200000A94E2F780FD6D270F5F1F4F80810E94D7
:101210004104BFEFEB1AFB0AEC1658F3DF91CF91B4
:101220001F910F91FF90EF90DF90CF900895C4E051
:10123000D8CFC3E0D6CFDC011396EC911397E930F9
:1012400008F042C0F0E08827E75DF64F8F4F0C941E
:10125000122032093A09410948094F09640956091F
:1012600064095D09ED91FC9111970084F185E02DF1
:10127000CD011994ED91FC9111970284F385E02D35
:10128000F7CFED91FC9111970484F585E02DF0CF17
:10129000ED91FC9111970684F785E02DE9CFED9152
:1012A000FC9111970088F189E02DE2CFED91FC913E
:1012B00011970288F389E02DDBCFED91FC91119716
:1012C0000488F589E02DD4CF08954F925F926F92F4
:1012D0007F928F929F92AF92BF92CF92DF92EF92C6
:1012E000FF920F931F93CF93DF93EC01C888D988A7
:1012F000EA88FB888C859D85AE85BF85C81AD90A8A
:10130000EA0AFB0A6C897D898E899F899B01AC0161
:101310000E94571D4B015C016C8D7D8D8E8D9F8DC4
:101320009B01AC010E94921E9B01AC01C501B4015E
:101330000E94FE1E0E94701FC114D104E104F1043A
:1013400009F0B1C062307105810591050CF0CBC088
:101350001CA21DA21EA21FA21C8A1D8A1E8A1F8AF1
:101360001CAA1DAA1EAA1FAADF91CF911F910F913F
:10137000FF90EF90DF90CF90BF90AF909F908F90B5
:101380007F906F905F904F9008951016110612068F
:101390001306B4F46C157D058E059F051CF42A8197
:1013A0002111A1C09B01AC0188279927DC01821B78
:1013B000930BA40BB50B8CAB9DABAEABBFAB93C08B
:1013C000011511052105310509F48DC06C157D0548
:1013D0008E059F050CF087C08A81882309F483C09D
:1013E00030952095109501951F4F2F4F3F4F0CAB17
:1013F0001DAB2EAB3FAB77C00115110521053105A3
:1014000009F471C08824992454018C189D08AE08F1
:10141000BF08681579058A059B050CF064C08A81B0
:10142000811161C0DDCFCCACDDACEEACFFACA7016F
:101430009601C701B6010E94921E2B013C01C50115
:10144000B4010E94F81C20E030E040E850E40E9423
:10145000571D20E030E040E85FE30E94921E9B01B0
:10146000AC01C301B2010E94FE1E9B01AC01C70189
:10147000B6010E94911E3B016C01FE01E05CFF4F32
:10148000E080F180028113819701A8010E94A61FCC
:10149000181614F473018601C701D8018CAF9DAFF3
:1014A000AEAFBFAF3AC00CA91DA92EA93FA91C140D
:1014B0001D041E041F040CF468CF1016110612063A
:1014C00013060CF099CF0027112798010C191D095C
:1014D0002E093F0960177107820793070CF062CF4E
:1014E0002A8121115FCF8CA89DA8AEA8BFA8811426
:1014F0009104A104B10409F096CF88AD99ADAAADCD
:10150000BBAD8CAF9DAFAEAFBFAF81E01C141D046F
:101510001E041F040CF080E08A833FEF831A930AB5
:10152000A30AB30A8CAA9DAAAEAABFAACCACDDAC12
:10153000EEACFFACC701B6010E94771F6CA37DA380
:101540008EA39FA3A701960160E074E284E799E46B
:101550000E94FE1E6C8B7D8B8E8B9F8B2A812111AE
:1015600003CF90586C8B7D8B8E8B9F8BFDCECF9253
:10157000DF92EF92FF920F931F93CF93DF93EC01D3
:101580006A017B0120E030E0A901CB01B6010E9495
:10159000F11C87FF04C0F7FAF094F7F8F094A70164
:1015A0009601688D798D8A8D9B8D0E94F11C882310
:1015B00009F446C0C88ED98EEA8EFB8E8E01005C7F
:1015C0001F4FA701960160E074E284E799E40E944E
:1015D000FE1EF80160837183828393838CA99DA989
:1015E000AEA9BFA9181619061A061B064CF56C8978
:1015F0007D898E899F899B01AC010E94571D6B01DB
:101600007C016C8D7D8D8E8D9F8D9B01AC010E9428
:10161000921E9B01AC01C701B6010E94FE1E0E94F2
:10162000701F6CAB7DAB8EAB9FABCE01DF91CF91CA
:101630001F910F91FF90EF90DF90CF900C94650970
:10164000DF91CF911F910F91FF90EF90DF90CF909E
:101650000895CF92DF92EF92FF92CF93DF93EC0148
:101660008CA19DA1AEA1BFA1892B8A2B8B2B99F1B7
:101670000E94A0046B017C0188A599A5AAA5BBA521
:10168000B701A601481B590B6A0B7B0B8CA19DA1CE
:10169000AEA1BFA1481759076A077B07E0F08C8508
:1016A0009D85AE85BF852A812223B1F10196A11DBA
:1016B000B11D8C879D87AE87BF874C855D856E8504
:1016C0007F85CE010E941B09C8A6D9A6EAA6FBA663
:1016D000CE010E94650920E030E0A9016C897D8976
:1016E0008E899F890E94F11C81111AC081E0C888EF
:1016F000D988EA88FB884C855D856E857F85C41610
:10170000D506E606F70609F480E0DF91CF91FF9059
:10171000EF90DF90CF9008950197A109B109C9CF4B
:1017200081E0F3CFCF93DF93EC01CE010E94290B30
:101730008111FBCFDF91CF9108950F931F93FC018F
:10174000008911892289338904171507260737076D
:1017500041F0408B518B628B738B1F910F910C94D6
:1017600065091F910F910895CF92DF92EF92FF923A
:101770000F931F93CF938EE40E94540210E000E079
:10178000882331F08EE40E9436020E94701F8B0184
:1017900084E50E94540270E060E0882329F084E52B
:1017A0000E9436020E94701F6B01770FEE08FF083F
:1017B000F8013197E830F10578F48827ED51F44FBE
:1017C0008F4F0C941220EB0B030C050C070C090C2B
:1017D0000B0C0D0C0F0CCEE061E08C2F0E946F04FF
:1017E00060E08C2F0E944104C701B6010E94C5042D
:1017F00061E08C2FCF911F910F91FF90EF90DF90C0
:10180000CF900C944104CFE0E7CFC0E1E5CFC9E22F
:10181000E3CFC6E1E1CFC9E1DFCFC2E3DDCFC3E370
:10182000DBCF8F929F92AF92BF92CF92DF92EF92D7
:10183000FF928EE40E945402812C912C5401882343
:1018400029F08EE40E9436024B015C0184E40E9480
:101850005402C12CD12C7601882329F084E40E9403
:1018600036026B017C01C501B4010E94701F8DE836
:1018700094E00E947C05C701B6010E94701F8DE8AC
:1018800094E00E94F80468EE73E080E090E00E942B
:10189000C504E0918D048E2F90E0FC01EE0FFF1F38
:1018A000E80FF91FE25EFC4F80818F7B8083FF9001
:1018B000EF90DF90CF90BF90AF909F908F90089562
:1018C00068E070E087E894E00E947C0564E670E0E0
:1018D00080E090E00E94C50464EB70E087E894E04B
:1018E0000E942F0568EE73E080E090E00E94C5043E
:1018F00066E470E087E894E00E942F0568EE73E0EC
:1019000080E090E00E94C50464EB70E087E894E01A
:101910000E942F05E09187048E2F90E0FC01EE0FCE
:10192000FF1FE80FF91FE25EFC4F80818F7B8083F1
:10193000089564E070E08AE894E00E947C0568EE17
:1019400073E080E090E00E94C50460E570E08AE802
:1019500094E00E942F0568EE73E080E090E00E9422
:10196000C50464EB70E08AE894E00E942F0568EEFD
:1019700073E080E090E00E94C50460E570E08AE8D2
:1019800094E00E942F05E0918A048E2F90E0FC01E4
:10199000EE0FFF1FE80FF91FE25EFC4F80818F7B87
:1019A00080830895CF93DF9388E097E090931703A7
:1019B00080931603C0911603D0911703C53C89E0AC
:1019C000D8078CF4BE0180E994E00E94F80465E039
:1019D00070E080E090E00E94C5042196D093170348
:1019E000C0931603E7CF65E070E08DE894E00E94B5
:1019F0007C058AE590E09093010280930002C091FB
:101A00000002D0910102D7FD11C0BE018DE894E023
:101A10000E942F0565E070E080E090E00E94C50420
:101A20002197D0930102C0930002E9CFE0918D0489
:101A30008E2F90E0FC01EE0FFF1FE80FF91FE25E12
:101A4000FC4F80818F7B808384EC99E09093170317
:101A500080931603C0911603D0911703C83087E016
:101A6000D8078CF0BE0180E994E00E94F80465E09C
:101A700070E080E090E00E94C5042197D0931703A6
:101A8000C0931603E7CF88E097E090931703809305
:101A90001603C0911603D0911703C03B84E0D8070A
:101AA0008CF0BE0180E994E00E94F8046AE070E0E6
:101AB00080E090E00E94C5042197D0931703C09363
:101AC0001603E7CF80EB94E09093170380931603FF
:101AD000C0911603D0911703C43F81E0D8078CF062
:101AE000BE0180E994E00E94F80465E070E080E0C7
:101AF00090E00E94C5042197D0931703C09316036A
:101B0000E7CF84EF91E09093170380931603C09181
:101B10001603D0911703C53C89E0D8078CF4BE01A9
:101B200080E994E00E94F80462E070E080E090E0D8
:101B30000E94C5042196D0931703C0931603E7CFE4
:101B400065E070E08DE894E00E947C05109201024F
:101B500010920002C0910002D0910102CB35D10554
:101B60008CF4BE018DE894E00E942F056FE070E0D8
:101B700080E090E00E94C5042196D0930102C093BA
:101B80000002E8CFE0918D048E2F90E0FC01EE0F73
:101B9000FF1FE80FF91FE25EFC4F80818F7B80837F
:101BA00084EC99E09093170380931603C091160379
:101BB000D0911703C83087E0D8078CF0BE0180E9C8
:101BC00094E00E94F80465E070E080E090E00E94FC
:101BD000C5042197D0931703C0931603E7CFDF9175
:101BE000CF910895FC0101900020E9F73197AF01F2
:101BF000481B590BBC0187EB93E00C946202CF9316
:101C0000DF930E944503EC0182E592E00E94F20D11
:101C10008C0F9D1FDF91CF91089561E082E30E94B8
:101C20006F0460E082E30E94410460ED77E080E0B1
:101C300090E00E94C50461E082E30E9441048FEBC2
:101C400092E00C94FF0D8F929F92AF92BF920F93F0
:101C50001F93CF93DF93CDB7DEB7A1970FB6F8945C
:101C6000DEBF0FBECDBF19A2423008F44AE08E019C
:101C70000F5D1F4F842E912CB12CA12CA501940136
:101C80000E94601EE62FB901CA01EA30F4F4E05D5B
:101C9000D801EE938D01232B242B252B79F790E08F
:101CA00080E0109719F0CD010E94F20DA1960FB6B9
:101CB000F894DEBF0FBECDBFDF91CF911F910F9182
:101CC000BF90AF909F908F900895E95CE1CFCF9344
:101CD000DF930E94F20DEC0182E592E00E94F20D8A
:101CE0008C0F9D1FDF91CF91089561E083E30E94E7
:101CF0006F0460E083E30E94410460E177E280E0EA
:101D000090E00E94C50488E10E94180421E0892B1C
:101D100009F420E02093180385E592E00E94670E05
:101D200060E083E30E944104809118038111EBCFAE
:101D300068E57BE180E090E00E94C50461E083E318
:101D40000E94410482ED92E00C94FF0D0E94D20C9F
:101D50000E940D0E0C94750E81E30E941804892BCD
:101D600021F487E692E00C94670E80E792E0FBCFC7
:101D700084E20E941804892B21F48CE792E00C94F1
:101D8000670E85E892E0FBCFCF92DF92EF92FF9251
:101D9000CF93DF936C01990FEE08FF08F7FE1FC089
:101DA0006DE287EB93E00E94F802EC01662777274B
:101DB000CB016C197D098E099F094AE00E94230E10
:101DC000C80FD91F82E592E00E94F20D8C0F9D1F73
:101DD000DF91CF91FF90EF90DF90CF9008954AE090
:101DE000C701B6010E94230EEC01ECCFCF93DF9325
:101DF00060E086E10E94410468EE73E080E090E0DC
:101E00000E94C50482E10E94180460E086E10E94FD
:101E1000410482E10E941804EC010E94C40E219743
:101E2000A1F38BE59DE60197F1F761E086E1DF9193
:101E3000CF910C94410480917D0490917E04009791
:101E400011F00C94391B60E070E0CB010895CF9342
:101E5000DF93EC01A881B981EB01E881F98110974A
:101E6000F1F03097B1F4EC018C819D81892BC9F0A0
:101E70008C9190E00BC0DB0114968D919C91892B85
:101E800081F0808190E0919581959109DF91CF91CA
:101E90000895BF01CD01DF91CF910C942922309795
:101EA00051F790E080E0F2CF0F931F93CF93DF9331
:101EB000EC0188819981009759F02A813B8126178E
:101EC000370730F081E0DF91CF911F910F91089596
:101ED0008B016F5F7F4F0E943F21009759F09983DC
:101EE00088831B830A832C813D81232B59F7FC01B6
:101EF0001082E8CF80E0E7CFEF92FF920F931F931D
:101F0000CF93DF936115710541F480E0DF91CF91AC
:101F10001F910F91FF90EF90089541155105B1F079
:101F20007B01EC010C811D81040F151FB8010E947B
:101F3000540F882351F3288139818C819D81B70109
:101F4000820F931F0E9432221D830C8381E0DECF1B
:101F5000CF93DF93EC0188819981009711F00E9463
:101F6000B620198218821D821C821B821A82DF9180
:101F7000CF910895EF92FF920F931F93CF93DF932A
:101F8000EC017B018A01BA010E94540F81110BC040
:101F9000CE010E94A80FCE01DF91CF911F910F912A
:101FA000FF90EF9008951D830C83B701888199817C
:101FB0000E943222F0CFFB0101900020E9F7319717
:101FC000AF01461B570B0C94BA0FCF93DF931F92B0
:101FD0001F92CDB7DEB7FC011182108213821282EC
:101FE0001582148269831A82BE016F5F7F4F0E943F
:101FF000DB0F0F900F90DF91CF910895CF93DF9378
:10200000EC01FB018617970749F06081718161152A
:10201000710541F0448155810E94BA0FCE01DF91D4
:10202000CF9108950E94A80FF9CFFC011182108270
:1020300013821282158214820C94FE0FFC0111820D
:1020400010821382128215821482FB0101900020FB
:10205000E9F73197AF01461B570B0C94BA0FFC01FF
:1020600080819181009711F00C94B62008954F92D1
:102070005F926F927F928F929F92AF92BF92CF9218
:10208000DF92EF92FF92CF93DF93EC016A017B0125
:1020900020E030E0A901CB01B6010E94F11C87FFCE
:1020A00004C0F7FAF094F7F8F0948C8C9D8CAE8C09
:1020B000BF8CA7019601C501B4010E94F11C8823C1
:1020C00009F449C06CA97DA98EA99FA90E94F81C9A
:1020D0002B013C01A7019601C501B4010E94FE1E1F
:1020E0009B01AC01C301B2010E94571D0E94701FE9
:1020F0006CAB7DAB8EAB9FABA701960160E070E04F
:1021000080E090E40E94FE1E0E94B11F26E53EE0A2
:102110004DE25FE30E94571D20E034E244E759E4BA
:102120000E94571D68AF79AF8AAF9BAFCC8EDD8E12
:10213000EE8EFF8ECE01DF91CF91FF90EF90DF907A
:10214000CF90BF90AF909F908F907F906F905F9057
:102150004F900C946509DF91CF91FF90EF90DF9045
:10216000CF90BF90AF909F908F907F906F905F9037
:102170004F900895CF93DF93EC018AE292E0998328
:10218000888381E08B831C861D861E861F86188AA5
:10219000198A1A8A1B8A1C8A1D8A1E8A1F8A80E055
:1021A00090E0A0E8BFE3888F998FAA8FBB8F1C8E29
:1021B0001D8E1E8E1F8E88A399A3AAA3BBA31CA24B
:1021C0001DA21EA21FA221E030E03DA72CA72FEFE9
:1021D0002FA718A619A61AA61BA66C834D8324E068
:1021E0002E8325E02F831EA61CAA1DAA1EAA1FAAA5
:1021F00018AE19AE1AAE1BAE1CAE1DAE1EAE1FAE93
:10220000FE01E05CFF4F80839183A283B3831A8237
:10221000188619861A861B86CE010E94440740E064
:1022200050E060E87FE3CE01DF91CF910C9437104E
:10223000CF92DF92EF92FF920F931F93CF93DF9392
:1022400084E40E945402D0E0C0E0882331F084E4AA
:102250000E9436020E94701FEB0183E50E94540227
:1022600010E000E0882331F083E50E9436020E94EE
:10227000701F8B0181E40E94540270E060E08823AB
:1022800029F081E40E9436020E94701F072E000C84
:10229000880B990B0E94F81C6B017C018BE195E087
:1022A0000E947807B801110F880B990B0E94F81C47
:1022B000AB01BC018BE195E00E94B70A20E030E061
:1022C000A901C701B6010E94F11C882331F0B701B2
:1022D000A6018BE195E00E943710AE01DD0F660B81
:1022E000770B8BE195E00E949D0B8BE195E00E94BE
:1022F000920B8BE195E0DF91CF911F910F91FF90B1
:10230000EF90DF90CF900C944407CF92DF92EF9242
:10231000FF9240E050E06AE774E483E994E00E94B1
:10232000B70A40E050E06AE774E483E994E00E9471
:10233000371020E030E04FE254E46091A704709140
:10234000A8048091A9049091AA040E94F11C8823FA
:1023500041F040E050E06FE274E483E994E00E94D1
:10236000D906CC24CA94DC2C76018CE00E94180497
:10237000892BB1F0B701A60183E994E00E949D0B7F
:1023800081E0C81AD108E108F10883E994E00E94CD
:10239000290B65E070E080E090E00E94C504E5CF85
:1023A00010929F041092A0041092A1041092A20413
:1023B0001092A3041092A4041092A5041092A604F3
:1023C0001092C7041092C8041092C9041092CA0453
:1023D0001092B7041092B8041092B9041092BA0483
:1023E0001092A7041092A8041092A9041092AA04B3
:1023F00040E050E06AE774E483E994E00E94B70AA1
:1024000040E050E06AE774E483E994E00E9437100A
:1024100020E030E04FE254E46091A7047091A804FA
:102420008091A9049091AA040E94F11C882341F094
:1024300040E050E06FE274E483E994E00E94D90642
:10244000C12CD12C7601C3948CE00E941804892BF6
:10245000B1F4B701A60183E994E00E949D0B83E9E2
:1024600094E00E94290B8FEFC81AD80AE80AF80AEC
:1024700065E070E080E090E00E94C504E5CF109236
:102480009F041092A0041092A1041092A204109232
:10249000A3041092A4041092A5041092A604109212
:1024A000C7041092C8041092C9041092CA04109272
:1024B000B7041092B8041092B9041092BA041092A2
:1024C000A7041092A8041092A9041092AA0487E706
:1024D00092E0FF90EF90DF90CF900C94FF0DCF92A1
:1024E000DF92EF92FF920E94701F62507109C12C1F
:1024F000D12C76016530710548F4660F771FFB011A
:10250000E65FFD4FC080D180F12CE12C40E050E02F
:102510006FE274E483E994E00E94B70A40E050E07F
:1025200068E473E483E994E00E943710B701A601E0
:1025300083E994E00E949D0B83E994E00E94920B52
:1025400081E992E00E94670E83E692E0FF90EF90AF
:10255000DF90CF900C94FF0D89E40E94540270E04C
:1025600060E0882329F089E40E9436020E94701FEF
:10257000072E000C880B990B0E94F81C0C946F120C
:10258000CF92DF92EF92FF920F931F93CF93DF933F
:1025900084E40E945402D0E0C0E0882331F084E457
:1025A0000E9436020E94701FEB0183E50E945402D4
:1025B00010E000E0882331F083E50E9436020E949B
:1025C000701F8B0181E40E94540270E060E0882358
:1025D00029F081E40E9436020E94701F072E000C31
:1025E000880B990B0E94F81C6B017C01B801110F3C
:1025F000880B990B0E94F81CAB01BC0183E994E0A5
:102600000E94B70A20E030E0A901C701B6010E948C
:10261000F11C882331F0B701A60183E994E00E9400
:102620003710AE01DD0F660B770B83E994E00E9453
:102630009D0B83E994E0DF91CF911F910F91FF9063
:10264000EF90DF90CF900C94920B0C94181E81E0C9
:1026500090E00E942513682F70E090E080E04AE04F
:102660000E94230E82E592E00C94F20DCF92DF924D
:10267000EF92FF928BE195E00E94780740E050E0F6
:1026800066E174E48BE195E00E94B70A40E050E017
:102690006AEF73E48BE195E00E943710CC24CA9472
:1026A000DC2C760184E30E941804892BB1F0B70179
:1026B000A6018BE195E00E949D0B81E0C81AD1082C
:1026C000E108F1088BE195E00E94290B65E070E0DC
:1026D00080E090E00E94C504E5CF1092270510929B
:1026E00028051092290510922A0510922B051092A8
:1026F0002C0510922D0510922E0510924F05109268
:102700005005109251051092520510923F051092FB
:102710004005109241051092420510922F0510922B
:102720003005109231051092320540E050E066E12C
:1027300074E48BE195E00E94B70A40E050E06AEF54
:1027400073E48BE195E00E943710C12CD12C760107
:10275000C39484E30E941804892BB1F4B701A60145
:102760008BE195E00E949D0B8BE195E00E94290B87
:102770008FEFC81AD80AE80AF80A65E070E080E02E
:1027800090E00E94C504E5CF8BE195E00E944407EC
:1027900010922705109228051092290510922A05FB
:1027A00010922B0510922C0510922D0510922E05DB
:1027B00010924F051092500510925105109252053B
:1027C00010923F051092400510924105109242056B
:1027D00010922F051092300510923105109232059B
:1027E00087E992E00E94FF0D1092150310921403E6
:1027F00060E090E080E0FF90EF90DF90CF900C944D
:10280000201ECF93DF938EEA92E00E94450390E072
:1028100080E00E942513682F70E090E080E04AE09D
:102820000E94230E82E592E00E94F20DC0912705DE
:10283000D0912805D0931503C093140383EA92E046
:102840000E944503CE010E94C40E6091140390E0E3
:1028500080E0DF91CF910C94201ECF92DF92EF9217
:10286000FF9289E40E94540270E060E0882329F01E
:1028700089E40E9436020E94701F62507109C12CC7
:10288000D12C76016930710558F4660F771FFB0172
:10289000EC5EFD4FC080D1800D2C000CEE08FF08CF
:1028A0008BE195E00E94780740E050E06FE274E42D
:1028B0008BE195E00E94B70A40E050E068E473E4E1
:1028C0008BE195E00E943710B701A6018BE195E0FE
:1028D0000E949D0B8BE195E00E94920B8BE195E0AD
:1028E0000E94440781E992E00E94670E80912705CB
:1028F0009091280590931503809314030E94C40EB1
:1029000083E892E00E94FF0D6091140390E080E064
:10291000FF90EF90DF90CF900C94201ECF93DF9329
:1029200081E090E00E942513682F70E090E080E045
:102930000E94F61C0E946F1269E070E08DE894E03E
:102940000E947C0560ED77E080E090E00E94C50485
:102950006EE670E08DE894E00E942F0560ED77E070
:1029600080E090E00E94C50470E060E08DE894E0B3
:102970000E942F0560ED77E080E090E00E94C504A2
:102980008BE00E941804EC018091120390911303D4
:102990000E94C40E809112039091130301969093AC
:1029A000130380931203CD2B29F488EA92E00E944E
:1029B000670E07C097FD05C083309105FCF00397B3
:1029C00021F16EE670E08DE894E00E942F0568EE3C
:1029D00073E080E090E00E94C504E0918D048E2FAA
:1029E00090E0FC01EE0FFF1FE80FF91FE25EFC4FC5
:1029F00080818F7B8083DF91CF91089581EB92E07E
:102A00000E94670E0E948E14DCCF8DEB92E00E9434
:102A1000670E109213031092120381E090E00E945F
:102A20002513863019F487EC92E0C1CF6EE670E092
:102A30008DE894E00E942F0568EE73E080E090E05E
:102A40000E94C50481E090E00E942513C82F61E038
:102A5000680F81E090E00E94201E6C2F70E06F5F95
:102A60007F4F072E000C880B990B0E94F81C0E94C8
:102A70006F12C8CF61E081E090E00C94201E1F929D
:102A80000F920FB60F9211240BB60F922F933F9314
:102A90004F935F936F937F938F939F93AF93BF9366
:102AA000EF93FF9387EB93E00E94D602FF91EF91A3
:102AB000BF91AF919F918F917F916F915F914F9156
:102AC0003F912F910F900BBE0F900FBE0F901F9054
:102AD00018951F920F920FB60F9211240BB60F92FA
:102AE0002F938F939F93EF93FF93E091C703F09100
:102AF000C8038081E091CD03F091CE0382FD1DC01B
:102B000090818091D0038F5F8F732091D1038217C2
:102B100041F0E091D003F0E0E954FC4F958F8093B1
:102B2000D003FF91EF919F918F912F910F900BBE4A
:102B30000F900FBE0F901F9018958081F2CF1F92BB
:102B40000F920FB60F9211242F933F938F939F9361
:102B5000AF93BF938091AF039091B003A091B10365
:102B6000B091B2033091AE0323E0230F2D3758F517
:102B70000196A11DB11D2093AE038093AF039093E6
:102B8000B003A093B103B093B2038091B3039091CB
:102B9000B403A091B503B091B6030196A11DB11D78
:102BA0008093B3039093B403A093B503B093B6039B
:102BB000BF91AF919F918F913F912F910F900FBE39
:102BC0000F901F90189526E8230F0296A11DB11DA6
:102BD000D2CF1F920F920FB60F9211240BB60F9205
:102BE0002F933F934F935F936F937F938F939F9315
:102BF000AF93BF93EF93FF9348E251E064E271E03B
:102C000090E080E00E941F06FF91EF91BF91AF918D
:102C10009F918F917F916F915F914F913F912F91F4
:102C20000F900BBE0F900FBE0F901F9018951F9224
:102C30000F920FB60F9211240BB60F922F933F9362
:102C40004F935F936F937F938F939F93AF93BF93B4
:102C5000EF93FF9348EA50E064EA70E083E090E08D
:102C60000E941F06FF91EF91BF91AF919F918F91AD
:102C70007F916F915F914F913F912F910F900BBE7C
:102C80000F900FBE0F901F9018951F920F920FB6C6
:102C90000F9211240BB60F922F933F934F935F9394
:102CA0006F937F938F939F93AF93BF93EF93FF9314
:102CB00048E950E064E970E082E090E00E941F067D
:102CC000FF91EF91BF91AF919F918F917F916F9104
:102CD0005F914F913F912F910F900BBE0F900FBEC0
:102CE0000F901F9018951F920F920FB60F921124FC
:102CF0000BB60F922F933F934F935F936F937F93F6
:102D00008F939F93AF93BF93EF93FF9348E850E067
:102D100064E870E081E090E00E941F06FF91EF916F
:102D2000BF91AF919F918F917F916F915F914F91E3
:102D30003F912F910F900BBE0F900FBE0F901F90E1
:102D400018950F931F93CF93DF93E7EBF3E0138274
:102D5000128288EE93E0A0E0B0E084839583A6839E
:102D6000B78384E492E09183808385EC90E095873B
:102D7000848784EC90E09787868780EC90E0918B45
:102D8000808B81EC90E0938B828B82EC90E0958B32
:102D9000848B86EC90E0978B868B118E128E138E2F
:102DA000148E63ED72E08FE595E00E941E10CFE572
:102DB000D5E086EA9EE09F838E8366ED72E087E62B
:102DC00095E00E941E1082ED9CE09F878E8769ED42
:102DD00072E08FE695E00E941E108DE09EE09F8BD2
:102DE0008E8B6CED72E087E795E00E941E1085E700
:102DF0009EE09F8F8E8F6FED72E08FE795E00E94CF
:102E00001E1086EF9EE09FA38EA362EE72E087E81D
:102E100095E00E941E1088EB9EE09FA78EA765EEAE
:102E200072E08FE895E00E941E108CEA9EE09FAB56
:102E30008EAB68EE72E087E995E00E941E1089E98A
:102E40009CE09FAF8EAF6BEE72E08FE995E00E9441
:102E50001E1080E69CE09093A6058093A5056EEE7B
:102E600072E087EA95E00E941E1088E191E190935C
:102E7000AE058093AD0561EF72E08FEA95E00E94A8
:102E80001E108DE294E19093B6058093B50564EF32
:102E900072E087EB95E00E941E1086E393E1909329
:102EA000BE058093BD0567EF72E08FEB95E00E9451
:102EB0001E1081E094E19093C6058093C5056AEFEA
:102EC00072E087EC95E00E941E1080EC92E19093F6
:102ED000CE058093CD056DEF72E08FEC95E00E94FA
:102EE0001E108CEA92E19093D6058093D50560E0A0
:102EF00073E087ED95E00E941E1085E891E19093C4
:102F0000DE058093DD0563E073E08FED95E00E94C0
:102F10001E1087E293E19093E6058093E50566E055
:102F200073E087EE95E00E941E108EE894E1909386
:102F3000EE058093ED0569E073E08FEE95E00E9469
:102F40001E108AE395E19093F6058093F5056CE0F9
:102F500073E087EF95E00E941E1081E19CE0909362
:102F6000FE058093FD056FE073E08FEF95E00E9412
:102F70001E1084EB9BE090930606809305064FE2BB
:102F80006EE28BE195E00E94BA104FE160E287EDBE
:102F900094E00E94BA104CE26DE283E994E00E9452
:102FA000BA1080E994E00E9404068DE894E00E9443
:102FB00004068AE894E00E94040687E894E00E94F0
:102FC000040664E572E08DE694E00E941E1004E5BC
:102FD00014E0F801178E10A214A213A210A617A2D3
:102FE00064E572E08DE794E00E941E10F80110AADB
:102FF00017A612AA11AAD2A3C1A385E190E094A3B7
:1030000083A3DF91CF911F910F910895CF93DF9309
:10301000CDB7DEB7A4970FB6F894DEBF0FBECDBF15
:10302000789484B5826084BD84B5816084BD85B5A3
:10303000826085BD85B5816085BD80916E008160AF
:1030400080936E0010928100809181008260809355
:103050008100809181008160809381008091800057
:103060008160809380008091B10084608093B10082
:103070008091B00081608093B00080919100826067
:103080008093910080919100816080939100809164
:1030900090008160809390008091A1008260809375
:1030A000A1008091A10081608093A1008091A00087
:1030B00081608093A0008091210182608093210132
:1030C00080912101816080932101809120018160A4
:1030D0008093200180917A00846080937A008091AF
:1030E0007A00826080937A0080917A008160809378
:1030F0007A0080917A00806880937A001092C100F3
:1031000080E380934A0561E00E946F046091490565
:1031100081E0682780914A050E94410440E050E028
:103120006AE774E48BE195E00E94B70A20E030E0A2
:1031300046E154E460912F0570913005809131058E
:10314000909132050E94F11C882341F040E050E04C
:1031500066E174E48BE195E00E94D90640E050E01E
:103160006AEF73E48BE195E00E94371080E380936F
:103170004A0561E00E946F046091490581E068277B
:1031800080914A050E9441048BE195E00E9444072A
:1031900062E08FE00E946F0462E085E30E946F04AA
:1031A00062E081E30E946F0462E084E20E946F04A7
:1031B00062E088E10E946F0462E08BE00E946F048D
:1031C00062E083E10E946F0462E086E20E946F0485
:1031D00062E082E10E946F0461E086E10E946F0478
:1031E00061E089E10E946F0461E086E10E94410490
:1031F00061E089E10E94410462E070E080E994E0CE
:103200000E947C0568E077E080E994E00E94F80481
:10321000E091C703F091C80382E08083E091C3038B
:10322000F091C4031082E091C503F091C6038FECC6
:1032300080831092CF03E091CB03F091CC0386E022
:103240008083E091C903F091CA038081806180830B
:10325000E091C903F091CA03808188608083E09186
:10326000C903F091CA03808180688083E091C9031B
:10327000F091CA0380818F7D80833DE6632E34E028
:10328000732E42E0A42EB12C88248A94982C5524C5
:10329000539480917304882309F1E0917B04F091A9
:1032A0007C04309709F4EEC01995909284048092C2
:1032B000830464E572E08DE794E00E94DB0F1092D6
:1032C000730410927404E4E5F4E010821182128217
:1032D0001382148235966E167F06B9F705E087EBE8
:1032E00093E00E94C002892B09F4F5C087EB93E0BC
:1032F0000E949E02182F803291F38A3019F08D308F
:1033000009F002C150927304109274040091830476
:103310001091840417FD0EC00E941B0F25E0209F12
:10332000F001219FF00D1124EC5AFB4F6183728351
:103330008383948304E514E0F801618172818381C1
:1033400094810E94701FCB011C8A1B8A1E8A1D8AD1
:10335000188E1F8A4AE0BE016F5F7F4F0E943D1B9F
:10336000BE016F5F7F4FCE0143960E94DB0FF801D5
:103370006081CE0149960E94E50FBE01675E7F4FD6
:10338000CE0101960E9415104F89588D6B897C895A
:10339000CE0101960E947C0F811104C0CE010196DE
:1033A0000E94A80FBE016F5F7F4FCE014F960E9413
:1033B0001510CE0101960E942F10CE0149960E9451
:1033C0002F10CE0143960E942F10F12CE12C8091FA
:1033D000770490917804E816F9060CF06AC0C09062
:1033E0007504D0907604C70123E0880F991F2A95B1
:1033F000E1F7C80ED91EB601CE0101960E94151044
:10340000F6018681978198878F83F8016081CE01CC
:1034100043960E94E50F2F89388D8D819E81281754
:10342000390759F4BE016F5F7F4FCE0143960E946A
:10343000270FDD24D394892B09F0D12CCE0143969C
:103440000E942F10DD2019F0EF81F88519952BA12E
:103450003CA18D819E812817390761F4BE016F5F01
:103460007F4FCE014F960E94270F892B19F4EF81D1
:10347000F8851995CE0101960E942F10FFEFEF1AE3
:10348000FF0AA5CF6DE674E0CE0101960E941510EB
:103490004D815E8169817A8187EB93E00E946202AF
:1034A00082E592E00E94F20DCE0101960E942F105B
:1034B000FCCECE014F960E942F100B5F1F4F84E071
:1034C0000D36180709F038CFE0917904F0917A04AD
:1034D000309709F0199586E20E941804892B09F0AB
:1034E000A1C081E090E0909303028093020280915A
:1034F0000202909103028130910509F49EC0029767
:1035000009F0C7CE61E09AC08B3321F0809174043A
:10351000882319F050927404E2CE80ED810F8A3036
:1035200020F083ED810F823048F5612FCE010196A6
:103530000E94E50F6DE774E0CE0143960E941510DE
:103540004D815E8169817A81CE0143960E947C0F14
:10355000811104C0CE0143960E94A80FBE016D5E8A
:103560007F4F8DE794E00E94FE0FCE0143960E94AC
:103570002F10CE0101960E942F10B1CE8FED810F3A
:103580008E3508F0ACCE8FE9810F8A3108F41052E5
:10359000E0908304F0908404E4E0EE16F1040CF073
:1035A0009ECEF7FC25C00E941B0F0E9DF0010F9DC3
:1035B000F00D1124EC5AFB4F618372838383948353
:1035C00064E572E08DE794E00E94DB0F8091830454
:1035D0009091840401969093840480938304089FBF
:1035E000F001099FF00D1124EC5AFB4F108377CEA8
:1035F0000E941B0F20E030E0A9010E94A61F1816B0
:10360000FCF61092840410928304109254040E94D9
:103610001B0F609355047093560480935704909346
:103620005804CECF83E10E941804019709F459CFC2
:10363000B0920302A09202025ACF60E089E10E9498
:10364000410425CECF93DF938DE794E00E942F10A5
:103650008DE694E00E942F10C7E0D6E02897CE01B7
:103660000E942F1085E0CF35D807C1F7DF91CF91A9
:103670000895662777270C94621BBB274A3031F4E4
:10368000992322F4BDE2909581959F4F0C94491B9C
:10369000BB27FB015527AA27880F991FAA1FA4172C
:1036A00010F0A41B83955051B9F7A05DAA3308F020
:1036B000A95DA193009779F7B111B1931192CB0154
:1036C0000C94E11C8F929F92AF92BF92CF92DF92A7
:1036D000EF92FF920F931F93CF93DF935C017B01D7
:1036E0006115710519F0DB018D939C9385010F5FC6
:1036F0001F4FF501D0818D2F90E00E94C01C6C01FE
:10370000892BB9F5DD32B9F50F5F1F4FD501119641
:10371000DC91C1E05801F1E0AF1AB10843E050E09C
:1037200060E372E0C5010E94C91C892B69F568013C
:1037300082E0C80ED11C45E050E06BE272E0C601A9
:103740000E94C91C892B21F4680197E0C90ED11C85
:10375000E114F10419F0D701CD92DC9260E070E041
:1037600080E89FEFC111FFC060E070E080E89FE754
:10377000FAC05801BBCFDB3229F485010E5F1F4F21
:10378000F501D181C0E0C6CF43E050E068E272E0CD
:10379000C5010E94C91C892BE9F0F80110E000E086
:1037A00020E030E0A9015F01B0ED8B2E8D0E89E0A5
:1037B0008815C8F19C2E689491F88C2F8870C2FFF0
:1037C00016C0811102C00F5F1F4F3196D501DC91E9
:1037D000C92DE9CFE114F10429F00E5F1F4FF70165
:1037E0001183008360E070E080EC9FE7BCC0882319
:1037F00011F001501109A5E0B0E00E944D1E9B019F
:10380000AC01220F331F441F551F280D311D411DD0
:10381000511D283999E93907490799E15907A8F253
:10382000C6609C2ED2CFAEEF8A1206C0C3FD3CC04C
:103830009C2E689493F8C9CFDF7DD534A9F580819B
:103840008D3239F4C061DF011296818162E070E04F
:1038500006C0DF018B32C1F3119661E070E0805346
:103860005D01A61AB70A8A30F8F4E0E8CE16ECE05B
:10387000DE065CF4B601660F771F660F771FC60E73
:10388000D71ECC0CDD1CC80ED11C5D01FFEFAF1A9A
:10389000BF0A8C9180538A30A8F1C4FF03C0D19431
:1038A000C194D1080C0D1D1DC1FF09C0E114F10424
:1038B00031F081E0A81AB108D701AD92BC92CA01DB
:1038C000B9010E94F61CC370C33009F490584B0133
:1038D0005C0120E030E0A9010E94F11C882309F47A
:1038E00040C0CFE5D2E017FF05C011950195110941
:1038F000C7E4D2E06E01B8E1CB1AD10880E2E82E2D
:10390000F12C0FC0D501B1CFFE0125913591459124
:1039100054910E191F09C501B4010E94571D4B0196
:103920005C01D501C4010E151F0574F72497F594A9
:10393000E794CC16DD06A9F78A2F880F8B2F881FF6
:103940008F3F49F020E030E0A901C501B4010E9499
:10395000F11C811106C082E290E0909308068093EA
:103960000706C501B401DF91CF911F910F91FF9020
:10397000EF90DF90CF90BF90AF909F908F90089581
:1039800091110C94C41D803219F089508550C8F7EC
:103990000895FB01DC014150504088F08D91813445
:1039A0001CF08B350CF4805E659161341CF06B3536
:1039B0000CF4605E861B611171F3990B0895881BEE
:1039C000FCCFDC01FC01672F71917723E1F732977F
:1039D00004C07C916D9370836291AE17BF07C8F3EA
:1039E00008950E94331D08F481E00895E89409C009
:1039F00097FB3EF490958095709561957F4F8F4F22
:103A00009F4F9923A9F0F92F96E9BB279395F69537
:103A1000879577956795B795F111F8CFFAF4BB0FB5
:103A200011F460FF1BC06F5F7F4F8F4F9F4F16C019
:103A3000882311F096E911C0772321F09EE8872FA3
:103A4000762F05C0662371F096E8862F70E060E05F
:103A50002AF09A95660F771F881FDAF7880F9695D8
:103A6000879597F90895990F0008550FAA0BE0E87C
:103A7000FEEF16161706E807F907C0F01216130630
:103A8000E407F50798F0621B730B840B950B39F470
:103A90000A2661F0232B242B252B21F408950A26D6
:103AA00009F4A140A6958FEF811D811D08950E9404
:103AB0006A1D0C94DE1D0E94D01D38F00E94D71D97
:103AC00020F0952311F00C94C71D0C94CD1D1124EA
:103AD0000C94121E0E94EF1D70F3959FC1F3950F79
:103AE00050E0551F629FF001729FBB27F00DB11D82
:103AF000639FAA27F00DB11DAA1F649F6627B00D12
:103B0000A11D661F829F2227B00DA11D621F739FFA
:103B1000B00DA11D621F839FA00D611D221F749F08
:103B20003327A00D611D231F849F600D211D822F4F
:103B3000762F6A2F11249F5750409AF0F1F0882376
:103B40004AF0EE0FFF1FBB1F661F771F881F9150A3
:103B50005040A9F79E3F510580F00C94C71D0C946E
:103B6000121E5F3FE4F3983ED4F3869577956795F0
:103B7000B795F795E7959F5FC1F7FE2B880F911DCD
:103B80009695879597F9089599278827089597F925
:103B90009F6780E870E060E008959FEF80EC0895F3
:103BA00000240A941616170618060906089500241C
:103BB0000A9412161306140605060895092E039496
:103BC000000C11F4882352F0BB0F40F4BF2B11F40A
:103BD00060FF04C06F5F7F4F8F4F9F4F089557FD69
:103BE0009058440F551F59F05F3F71F04795880F6B
:103BF00097FB991F61F09F3F79F087950895121602
:103C000013061406551FF2CF4695F1DF08C01616AD
:103C100017061806991FF1CF86957105610508945E
:103C20000895E894BB2766277727CB0197F9089575
:103C3000F999FECF92BD81BDF89A992780B5089574
:103C4000262FF999FECF1FBA92BD81BD20BD0FB6B8
:103C5000F894FA9AF99A0FBE01960895052E97FBEB
:103C60001EF400940E94451E57FD07D00E94601E5E
:103C700007FC03D04EF40C94451E509540953095AA
:103C800021953F4F4F4F5F4F0895909580957095C8
:103C900061957F4F8F4F9F4F08950E94821EA59F71
:103CA000900DB49F900DA49F800D911D1124089537
:103CB000B7FF0C944D1E0E944D1E821B930B08955E
:103CC000A1E21A2EAA1BBB1BFD010DC0AA1FBB1F20
:103CD000EE1FFF1FA217B307E407F50720F0A21B92
:103CE000B30BE40BF50B661F771F881F991F1A94FF
:103CF00069F760957095809590959B01AC01BD0129
:103D0000CF010895A29FB001B39FC001A39F700D82
:103D1000811D1124911DB29F700D811D1124911DD3
:103D200008955058BB27AA270E94A91E0C94DE1D97
:103D30000E94D01D38F00E94D71D20F039F49F3F1B
:103D400019F426F40C94CD1D0EF4E095E7FB0C94C9
:103D5000C71DE92F0E94EF1D58F3BA1762077307BA
:103D60008407950720F079F4A6F50C94111E0EF443
:103D7000E0950B2EBA2FA02D0B01B90190010C017B
:103D8000CA01A0011124FF27591B99F0593F50F493
:103D9000503E68F11A16F040A22F232F342F4427EB
:103DA000585FF3CF469537952795A795F0405395E3
:103DB000C9F77EF41F16BA0B620B730B840BBAF0B3
:103DC0009150A1F0FF0FBB1F661F771F881FC2F71E
:103DD0000EC0BA0F621F731F841F48F48795779532
:103DE0006795B795F7959E3F08F0B0CF9395880FEC
:103DF00008F09927EE0F9795879508950E94121F56
:103E00000C94DE1D0E94D71D58F00E94D01D40F07A
:103E100029F45F3F29F00C94C71D51110C94121E18
:103E20000C94CD1D0E94EF1D68F39923B1F3552327
:103E300091F3951B550BBB27AA27621773078407BD
:103E400038F09F5F5F4F220F331F441FAA1FA9F353
:103E500035D00E2E3AF0E0E832D091505040E69541
:103E6000001CCAF72BD0FE2F29D0660F771F881FA2
:103E7000BB1F261737074807AB07B0E809F0BB0B95
:103E8000802DBF01FF2793585F4F3AF09E3F5105A9
:103E900078F00C94C71D0C94121E5F3FE4F3983E1B
:103EA000D4F3869577956795B795F7959F5FC9F792
:103EB000880F911D9695879597F90895E1E0660F13
:103EC000771F881FBB1F621773078407BA0720F08C
:103ED000621B730B840BBA0BEE1F88F7E0950895F5
:103EE0000E94771F6894B1110C94121E08950E94CD
:103EF000F71D88F09F5798F0B92F9927B751B0F068
:103F0000E1F0660F771F881F991F1AF0BA95C9F75D
:103F100014C0B13091F00E94111EB1E008950C94CC
:103F2000111E672F782F8827B85F39F0B93FCCF37F
:103F3000869577956795B395D9F73EF490958095DA
:103F4000709561957F4F8F4F9F4F08950E94331D4D
:103F500008F48FEF089519F416F40C94CD1D0C9409
:103F6000F11F0E94F71DB8F39923C9F3B6F39F57C9
:103F7000550B87FF0E94FF1F0024A0E640EA900136
:103F800080585695979528F4805C660F771F881F98
:103F900020F026173707480730F4621B730B840B99
:103FA000202931294A2BA6951794079420253125DD
:103FB0004A2758F7660F771F881F20F02617370704
:103FC000480730F4620B730B840B200D311D411D2B
:103FD000A09581F7B901842F9158880F9695879500
:103FE00008959F3F31F0915020F48795779567951C
:103FF000B795880F911D9695879597F908959150DB
:104000005040660F771F881FD2F70895991B79E0FB
:1040100004C0991F961708F0961B881F7A95C9F758
:1040200080950895EE0FFF1F881F8BBF0790F691B4
:10403000E02D19940F931F93CF93DF938230910556
:1040400010F482E090E0E0910B06F0910C0630E075
:1040500020E0B0E0A0E0309799F42115310509F493
:104060004AC0281B390B24303105D8F58A819B8141
:104070006115710589F1FB0193838283FE0111C0F3
:10408000408151810281138148175907E0F0481798
:10409000590799F4109761F012960C9312971396A2
:1040A0001C933296CF01DF91CF911F910F9108950C
:1040B00000930B0610930C06F4CF2115310551F037
:1040C0004217530738F0A901DB019A01BD01DF0156
:1040D000F801C1CFEF01F9CF90930C0680930B0646
:1040E000CDCFFE01E20FF31F81939193225031094E
:1040F00039832883D7CF2091090630910A06232BD4
:1041000041F4209106023091070230930A06209371
:10411000090620910402309105022115310541F470
:104120002DB73EB74091080250910902241B350B70
:10413000E0910906F0910A06E217F307A0F42E1B9E
:104140003F0B2817390778F0AC014E5F5F4F2417FB
:10415000350748F04E0F5F1F50930A06409309063B
:10416000819391939FCFF0E0E0E09CCFCF93DF93DA
:104170000097E9F0FC01329713821282A0910B069E
:10418000B0910C06ED0130E020E01097A1F4208101
:104190003181820F931F2091090630910A0628175A
:1041A000390709F061C0F0930A06E0930906DF9130
:1041B000CF910895EA01CE17DF07E8F54A815B81C8
:1041C0009E0141155105B1F7E901FB83EA8349914D
:1041D0005991C40FD51FEC17FD0761F480819181BF
:1041E0000296840F951FE9019983888382819381C8
:1041F0009B838A83F0E0E0E012968D919C91139767
:104200000097B9F52D913C911197CD010296820F3F
:10421000931F2091090630910A062817390739F6AD
:10422000309751F510920C0610920B06B0930A06C7
:10423000A0930906BCCFD383C28340815181840FF0
:10424000951FC817D90761F44E5F5F4F8881998128
:10425000480F591F518340838A819B8193838283B6
:104260002115310509F0B0CFF0930C06E0930B0651
:104270009ECFFD01DC01C0CF13821282D7CF4F92B7
:104280005F926F927F928F929F92AF92BF92CF92E6
:10429000DF92EF92FF920F931F93CF93DF938C01E6
:1042A000009799F4CB01DF91CF911F910F91FF906F
:1042B000EF90DF90CF90BF90AF909F908F907F90C6
:1042C0006F905F904F900C941A20FC01E60FF71F3F
:1042D0009C0122503109E217F30708F4AEC0D9015E
:1042E000CD91DC911197C617D70720F1C530D105C4
:1042F00078F0CE0104978617970750F0C61BD70BAE
:104300002297C193D1936D937C93CF010E94B620E5
:10431000C801DF91CF911F910F91FF90EF90DF9037
:10432000CF90BF90AF909F908F907F906F905F9055
:104330004F9008955B01AC1ABD0A4C018C0E9D1E76
:10434000A0910B06B0910C06512C412CF12CE12CC4
:10435000109731F58091090690910A068815990504
:1043600009F05CC04616570608F058C08091040258
:1043700090910502009741F48DB79EB740910802D5
:1043800050910902841B950BE817F90708F055C0F6
:10439000F0930A06E0930906F90171836083B8CFB0
:1043A0008D919C91119712966C90129713967C9018
:1043B0001397A815B90559F56C0142E0C40ED11C3C
:1043C000CA14DB0420F1AC014A195B09DA01129628
:1043D000159780F06282738251834083D9016D9377
:1043E0007C93E114F10471F0D7011396FC93EE93E2
:1043F00012978ECF22968C0F9D1FF9019183808397
:10440000F301EFCFF0930C06E0930B0681CF481633
:10441000590608F42C017D01D3019ACFCB010E94EB
:104420001A207C01009749F0AE01B8010E942022B9
:10443000C8010E94B62087016BCF10E000E068CF72
:10444000FB01DC0102C001900D9241505040D8F7B1
:104450000895FB01DC018D91019080190110D9F3C1
:10446000990B0895FB01DC0101900D920020E1F70A
:10447000089512E0C2E0D2E000E006C0802FFE0105
:104480000E9412202196011DC330D10780E0080749
:06449000A9F7F894FFCF2C
:10449600B400030000000D0680007805F00A6810DD
:1044A600E015581B5203A406F6090C0DFCEFFEF2AC
:1044B6001EF65CF9AEFC0000000078074407DD0834
:1044C6001B09C7089508740840081F08C9079607FE
:1044D60000000000F80262028F026003C0029E0222
:1044E600B2020D0A00D0A1D0B5D0BDD181D0BED1C7
:1044F60080203D3D2031005375676172204F4B008F
:1045060053756761722046616C73650043686F631B
:104516006F204F4B0043686F636F2046616C736575
:104526000043757272656E7420656E6420706F73D9
:104536006974696F6E3A2000437265616D204F4B56
:1045460000437265616D2046414C534500414C4C19
:104556002046414C534500435245414D20454D5060
:104566005459004730004330004331004332004382
:10457600330043340043350050300050310054308E
:10458600005431005432005433004D30004D310098
:104596004D32004D33004D34004D3500533000523E
:0245A6003000E3
:00000001FF
